:020000040800F2
:1000000000500020915500080155000803550008D4
:1000100005550008075500080955000800000000B4
:100020000000000000000000000000000B55000868
:100030000D550008000000000F550008115500087C
:10004000D9550008D9550008D9550008D9550008D8
:10005000D9550008D9550008D9550008D9550008C8
:10006000D9550008D9550008D9550008D9550008B8
:10007000D9550008D9550008D9550008D9550008A8
:10008000D9550008D9550008D9550008D955000898
:10009000D9550008D9550008D9550008D955000888
:1000A000D9550008D9550008D9550008D955000878
:1000B000D9550008D9550008D9550008D955000868
:1000C000D9550008D9550008D9550008D955000858
:1000D000D95500081D550008D9550008D955000804
:1000E000D9550008D9550008D9550008000000006E
:1000F0000000000000000000000000000000000000
:0C01000000000000000000005FF808F1A3
:1001100010B5054C237833B9044B13B10448AFF341
:1001200000800123237010BD200200200000000089
:10013000CC76000808B5034B1BB103490348AFF365
:10014000008008BD0000000024020020CC760008DA
:10015000034613F8012B002AFBD1181A0138704707
:1001600081F0004102E000BF83F0004330B54FEA68
:1001700041044FEA430594EA050F08BF90EA020FD5
:100180001FBF54EA000C55EA020C7FEA645C7FEA68
:10019000655C00F0E2804FEA5454D4EB5555B8BF8B
:1001A0006D420CDD2C4480EA020281EA030382EAFC
:1001B000000083EA010180EA020281EA0303362D8E
:1001C00088BF30BD11F0004F4FEA01314FF4801C61
:1001D0004CEA113102D0404261EB410113F0004F73
:1001E0004FEA03334CEA133302D0524263EB43032A
:1001F00094EA050F00F0A780A4F10104D5F1200EC8
:100200000DDB02FA0EFC22FA05F2801841F1000122
:1002100003FA0EF2801843FA05F359410EE0A5F1F6
:1002200020050EF1200E012A03FA0EFC28BF4CF027
:10023000020C43FA05F3C01851EBE37101F00045DD
:1002400007D54FF0000EDCF1000C7EEB00006EEBEA
:100250000101B1F5801F1BD3B1F5001F0CD3490874
:100260005FEA30004FEA3C0C04F101044FEA4452CB
:1002700012F5800F80F09A80BCF1004F08BF5FEA52
:10028000500C50F1000041EB045141EA050130BD32
:100290005FEA4C0C404141EB0101013C28BFB1F544
:1002A000801FE9D291F0000F04BF01460020B1FA8F
:1002B00081F308BF2033A3F10B03B3F120020CDA62
:1002C0000C3208DD02F1140CC2F10C0201FA0CF040
:1002D00021FA02F10CE002F11402D8BFC2F1200CA5
:1002E00001FA02F120FA0CFCDCBF41EA0C0190405B
:1002F000E41AA2BF01EB0451294330BD6FEA0404A4
:100300001F3C1CDA0C340EDC04F11404C4F120028E
:1003100020FA04F001FA02F340EA030021FA04F3A0
:1003200045EA030130BDC4F10C04C4F1200220FAF7
:1003300002F001FA04F340EA0300294630BD21FA35
:1003400004F0294630BD94F0000F83F4801306BFFB
:1003500081F480110134013D4EE77FEA645C18BFEF
:100360007FEA655C29D094EA050F08BF90EA020F86
:1003700005D054EA000C04BF1946104630BD91EA7E
:10038000030F1EBF0021002030BD5FEA545C05D181
:100390004000494128BF41F0004130BD14F58004C0
:1003A0003CBF01F5801130BD01F0004545F0FE4134
:1003B00041F470014FF0000030BD7FEA645C1ABF69
:1003C000194610467FEA655C1CBF0B46024650EAA0
:1003D000013406BF52EA033591EA030F41F40021CC
:1003E00030BD00BF90F0000F04BF0021704730B552
:1003F0004FF4806404F132044FF000054FF0000127
:1004000050E700BF90F0000F04BF0021704730B5E7
:100410004FF4806404F1320410F0004548BF4042BC
:100420004FF000013EE700BF42004FEAE2014FEA11
:1004300031014FEA02701FBF12F07F4393F07F4FEC
:1004400081F06051704732F07F4208BF704793F0EF
:100450007F4F04BF41F40021704730B54FF4607402
:1004600001F0004521F000411CE700BF50EA010205
:1004700008BF704730B54FF000050AE050EA0102AE
:1004800008BF704730B511F0004502D5404261EB1E
:1004900041014FF4806404F132045FEA915C3FF45F
:1004A000D8AE4FF003025FEADC0C18BF03325FEAFC
:1004B000DC0C18BF033202EBDC02C2F1200300FAAD
:1004C00003FC20FA02F001FA03FE40EA0E0021FAD2
:1004D00002F11444BDE600BF70B54FF0FF0C4CF4C0
:1004E000E06C1CEA11541DBF1CEA135594EA0C0F72
:1004F00095EA0C0F00F0DEF82C4481EA030621EAAD
:100500004C5123EA4C5350EA013518BF52EA0335E7
:1005100041F4801143F4801338D0A0FB02CE4FF099
:100520000005E1FB02E506F00042E0FB03E54FF0C9
:100530000006E1FB03569CF0000F18BF4EF0010EC1
:10054000A4F1FF04B6F5007F64F5407404D25FEABD
:100550004E0E6D4146EB060642EAC62141EA555170
:100560004FEAC52040EA5E504FEACE2EB4F1FD0CB2
:1005700088BFBCF5E06F1ED8BEF1004F08BF5FEA30
:10058000500E50F1000041EB045170BD06F00046E2
:1005900046EA010140EA020081EA0301B4EB5C048F
:1005A000C2BFD4EB0C0541EA045170BD41F4801187
:1005B0004FF0000E013C00F3AB8014F1360FDEBFAC
:1005C000002001F0004170BDC4F10004203C35DA88
:1005D0000C341BDC04F11404C4F1200500FA05F30B
:1005E00020FA04F001FA05F240EA020001F00042AC
:1005F00021F0004110EBD37021FA04F642EB060122
:100600005EEA430E08BF20EAD37070BDC4F10C044B
:10061000C4F1200500FA04F320FA05F001FA04F20F
:1006200040EA020001F0004110EBD37041F10001FB
:100630005EEA430E08BF20EAD37070BDC4F1200506
:1006400000FA05F24EEA020E20FA04F301FA05F26E
:1006500043EA020321FA04F001F0004121FA04F216
:1006600020EA020000EBD3705EEA430E08BF20EAE6
:10067000D37070BD94F0000F0FD101F00046400020
:1006800041EB010111F4801F08BF013CF7D041EAA2
:10069000060195F0000F18BF704703F000465200A6
:1006A00043EB030313F4801F08BF013DF7D043EA77
:1006B0000603704794EA0C0F0CEA135518BF95EA2D
:1006C0000C0F0CD050EA410618BF52EA4306D1D1B4
:1006D00081EA030101F000414FF0000070BD50EAD3
:1006E000410606BF1046194652EA430619D094EA5D
:1006F0000C0F02D150EA013613D195EA0C0F05D147
:1007000052EA03361CBF104619460AD181EA03019A
:1007100001F0004141F0FE4141F470014FF0000052
:1007200070BD41F0FE4141F4780170BD70B54FF0ED
:10073000FF0C4CF4E06C1CEA11541DBF1CEA13556D
:1007400094EA0C0F95EA0C0F00F0A7F8A4EB05044F
:1007500081EA030E52EA03354FEA013100F0888046
:100760004FEA03334FF0805545EA131343EA12630F
:100770004FEA022245EA111545EA10654FEA0026C4
:100780000EF000419D4208BF964244F1FD0404F57D
:10079000407402D25B084FEA3202B61A65EB0305D9
:1007A0005B084FEA32024FF480104FF4002CB6EB96
:1007B000020E75EB030E22BFB61A754640EA0C0016
:1007C0005B084FEA3202B6EB020E75EB030E22BF56
:1007D000B61A754640EA5C005B084FEA3202B6EB97
:1007E000020E75EB030E22BFB61A754640EA9C0056
:1007F0005B084FEA3202B6EB020E75EB030E22BF26
:10080000B61A754640EADC0055EA060E18D04FEAE3
:10081000051545EA16754FEA06164FEAC30343EA83
:1008200052734FEAC2025FEA1C1CC0D111F4801F50
:100830000BD141EA00014FF000004FF0004CB6E749
:1008400011F4801F04BF01430020B4F1FD0C88BFE8
:10085000BCF5E06F3FF6AFAEB5EB030C04BFB6EBF3
:10086000020C5FEA500C50F1000041EB045170BDE6
:100870000EF0004E4EEA113114EB5C04C2BFD4EB13
:100880000C0541EA045170BD41F480114FF0000E97
:10089000013C90E645EA060E8DE60CEA135594EA13
:1008A0000C0F08BF95EA0C0F3FF43BAF94EA0C0F16
:1008B0000AD150EA01347FF434AF95EA0C0F7FF48B
:1008C00025AF104619462CE795EA0C0F06D152EADF
:1008D00003353FF4FDAE1046194622E750EA4106C3
:1008E00018BF52EA43067FF4C5AE50EA41047FF4D4
:1008F0000DAF52EA43057FF4EBAE12E74FF0FF3C39
:1009000006E000BF4FF0010C02E000BF4FF0010C09
:100910004DF804CD4FEA410C7FEA6C5C4FEA430C82
:1009200018BF7FEA6C5C1BD001B050EA410C0CBFD1
:1009300052EA430C91EA030F02BF90EA020F002033
:10094000704710F1000F91EA030F58BF994208BF9A
:1009500090422CBFD8176FEAE37040F00100704757
:100960004FEA410C7FEA6C5C02D150EA013C07D1AE
:100970004FEA430C7FEA6C5CD6D152EA033CD3D0F9
:100980005DF8040B704700BF8446104662468C46F3
:100990001946634600E000BF01B5FFF7B7FF002826
:1009A00048BF10F1000F01BD4DF808EDFFF7F4FF4F
:1009B0000CBF012000205DF808FB00BF4DF808EDDA
:1009C000FFF7EAFF34BF012000205DF808FB00BFFD
:1009D0004DF808EDFFF7E0FF94BF012000205DF81F
:1009E00008FB00BF4DF808EDFFF7CEFF94BF0120D4
:1009F00000205DF808FB00BF4DF808EDFFF7C4FFCD
:100A000034BF012000205DF808FB00BF4FEA410C15
:100A10007FEA6C5C02D150EA013C0AD14FEA430CF8
:100A20007FEA6C5C02D152EA033C02D14FF0000035
:100A300070474FF0010070474FEA4102B2F1E043C6
:100A400024BFB3F5001CDCF1FE5C0DD901F0004CB5
:100A50004FEAC0024CEA5070B2F1004F40EB830005
:100A600008BF20F00100704711F0804F21D113F131
:100A70003872BCBF01F00040704741F480114FEA6A
:100A80005252C2F11802C2F1200C10FA0CF320FAF3
:100A900002F018BF40F001004FEAC1234FEAD32310
:100AA00003FA0CFC40EA0C0023FA02F34FEA43037A
:100AB000CCE77FEA625307D150EA01331EBF4FF003
:100AC000FE4040F44000704701F0004040F0FE401E
:100AD00040F40000704700BF80F0004002E000BF1B
:100AE00081F0004142001FBF5FEA410392EA030F19
:100AF0007FEA226C7FEA236C6AD04FEA1262D2EB63
:100B00001363C1BFD218414048404140B8BF5B4267
:100B1000192B88BF704710F0004F40F4000020F000
:100B20007F4018BF404211F0004F41F4000121F016
:100B30007F4118BF494292EA030F3FD0A2F1010260
:100B400041FA03FC10EB0C00C3F1200301FA03F19E
:100B500000F0004302D5494260EB4000B0F5000FC1
:100B600013D3B0F1807F06D340084FEA310102F180
:100B70000102FE2A51D2B1F1004F40EBC25008BF32
:100B800020F0010040EA03007047490040EB0000FC
:100B9000013A28BFB0F5000FEDD2B0FA80FCACF1FD
:100BA000080CB2EB0C0200FA0CF0AABF00EBC2502A
:100BB00052421843BCBFD0401843704792F0000F18
:100BC00081F4000106BF80F400000132013BB5E76B
:100BD0004FEA41037FEA226C18BF7FEA236C21D0E1
:100BE00092EA030F04D092F0000F08BF0846704746
:100BF00090EA010F1CBF0020704712F07F4F04D114
:100C0000400028BF40F00040704712F100723CBF26
:100C100000F50000704700F0004343F0FE4040F450
:100C2000000070477FEA226216BF08467FEA23630E
:100C30000146420206BF5FEA412390EA010F40F4F9
:100C4000800070474FF0000304E000BF10F0004345
:100C500048BF40425FEA000C08BF704743F096432C
:100C600001464FF000001CE050EA010208BF704747
:100C70004FF000030AE000BF50EA010208BF7047CE
:100C800011F0004302D5404261EB41015FEA010CE3
:100C900002BF84460146002043F0B64308BFA3F1DB
:100CA0008053A3F50003BCFA8CF2083AA3EBC253BD
:100CB00010DB01FA02FC634400FA02FCC2F12002DC
:100CC000BCF1004F20FA02F243EB020008BF20F013
:100CD0000100704702F1200201FA02FCC2F1200279
:100CE00050EA4C0021FA02F243EB020008BF20EA6E
:100CF000DC7070474FF0FF0C1CEAD0521EBF1CEA9C
:100D0000D15392EA0C0F93EA0C0F6FD01A4480EA89
:100D1000010C400218BF5FEA41211ED04FF0006372
:100D200043EA501043EA5111A0FB01310CF000409E
:100D3000B1F5000F3EBF490041EAD3715B0040EAC4
:100D4000010062F17F02FD2A1DD8B3F1004F40EB94
:100D5000C25008BF20F00100704790F0000F0CF067
:100D6000004C08BF49024CEA502040EA51207F3A2B
:100D7000C2BFD2F1FF0340EAC250704740F4000006
:100D80004FF00003013A5DDC12F1190FDCBF00F0F7
:100D900000407047C2F10002410021FA02F1C2F1A5
:100DA000200200FA02FC5FEA310040F1000053EA41
:100DB0004C0308BF20EADC70704792F0000F00F08F
:100DC000004C02BF400010F4000F013AF9D040EA95
:100DD0000C0093F0000F01F0004C02BF490011F429
:100DE000000F013BF9D041EA0C018FE70CEAD15327
:100DF00092EA0C0F18BF93EA0C0F0AD030F0004CA7
:100E000018BF31F0004CD8D180EA010000F000405A
:100E1000704790F0000F17BF90F0004F084691F018
:100E2000000F91F0004F14D092EA0C0F01D1420252
:100E30000FD193EA0C0F03D14B0218BF084608D11B
:100E400080EA010000F0004040F0FE4040F4000065
:100E5000704740F0FE4040F4400070474FF0FF0CF8
:100E60001CEAD0521EBF1CEAD15392EA0C0F93EA3F
:100E70000C0F69D0A2EB030280EA010C49024FEA91
:100E8000402037D04FF0805343EA111143EA10134A
:100E90000CF000408B4238BF5B0042F17D024FF402
:100EA000000C8B4224BF5B1A40EA0C00B3EB510FDD
:100EB00024BFA3EB510340EA5C00B3EB910F24BFC6
:100EC000A3EB910340EA9C00B3EBD10F24BFA3EB4B
:100ED000D10340EADC001B0118BF5FEA1C1CE0D113
:100EE000FD2A3FF650AF8B4240EBC25008BF20F0C6
:100EF000010070470CF0004C4CEA50207F32C2BF1A
:100F0000D2F1FF0340EAC250704740F400004FF0B6
:100F10000003013A37E792F0000F00F0004C02BFE7
:100F2000400010F4000F013AF9D040EA0C0093F0B1
:100F3000000F01F0004C02BF490011F4000F013B0B
:100F4000F9D041EA0C0195E70CEAD15392EA0C0F73
:100F500008D142027FF47DAF93EA0C0F7FF470AFAB
:100F6000084676E793EA0C0F04D14B023FF44CAFEE
:100F700008466EE730F0004C18BF31F0004CCAD183
:100F800030F000427FF45CAF31F000437FF43CAFBF
:100F90005FE700BF4FF0FF3C06E000BF4FF0010CE1
:100FA00002E000BF4FF0010C4DF804CD4FEA4002C3
:100FB0004FEA41037FEA226C18BF7FEA236C11D00D
:100FC00001B052EA530C18BF90EA010F58BFB2EBC0
:100FD000030088BFC81738BF6FEAE17018BF40F040
:100FE000010070477FEA226C02D15FEA402C05D1F4
:100FF0007FEA236CE4D15FEA412CE1D05DF8040B79
:10100000704700BF844608466146FFE70FB5FFF70B
:10101000C9FF002848BF10F1000F0FBD4DF808EDC3
:10102000FFF7F4FF0CBF012000205DF808FB00BFB4
:101030004DF808EDFFF7EAFF34BF012000205DF80E
:1010400008FB00BF4DF808EDFFF7E0FF94BF01205B
:1010500000205DF808FB00BF4DF808EDFFF7D2FF58
:1010600094BF012000205DF808FB00BF4DF808ED9B
:10107000FFF7C8FF34BF012000205DF808FB00BF68
:101080004FEA4002B2F1FE4F0FD34FF09E03B3EB95
:1010900012620DD94FEA002343F0004310F0004FD5
:1010A00023FA02F018BF404270474FF0000070472B
:1010B00012F1610F01D1420205D110F0004008BFCA
:1010C0006FF0004070474FF00000704742000ED2B2
:1010D000B2F1FE4F0BD34FF09E03B3EB126209D473
:1010E0004FEA002343F0004323FA02F070474FF029
:1010F0000000704712F1610F01D1420202D14FF09E
:10110000FF3070474FF00000704700BF10B5044635
:1011100001F0F6F9064AA2FB0020800900F082F8EF
:10112000002221464FF0FF3000F03AF8002010BDB9
:10113000D34D621008B5074A136843F010031360DB
:10114000032000F01BF80020FFF7E0FF04F0B6F8E2
:10115000002008BD00200240024A136801331360DA
:10116000704700BF3C020020014B1868704700BF69
:101170003C02002082B0019002B070470749CA6863
:10118000030203F4E06322F4E0621204120C13433E
:1011900043F0BF6343F40033CB60704700ED00E0E1
:1011A00000B5184BDB68C3F30223C3F1070CBCF195
:1011B000040F28BF4FF0040C03F1040EBEF1060F1C
:1011C0008CBF033B00234FF0FF3E0EFA0CFC21EADC
:1011D0000C0199400EFA03FE22EA0E021143002888
:1011E00009DB0901C9B200F1604000F5614080F8F7
:1011F00000135DF804FB00F00F000901C9B2024BB7
:101200001954F6E700ED00E014ED00E0410900F0AC
:101210001F0001238340024A42F82130704700BF7B
:1012200000E100E00138B0F1807F0BD24FF0E02305
:101230005861054AF02182F82310002098610722A6
:101240001A6170470120704700ED00E004284FF05C
:10125000E02213690CBF43F0040323F0040313617D
:101260007047704708B5FFF7FCFF08BD2DE9F04F48
:1012700083B0002213468F4E8F4C904DDFF840E232
:101280009446B4E0A9450FD006D9F1450CD0DFF85B
:1012900034A2D14508D01BE0DFF82CA2D14503D001
:1012A0000AF5702AD1450FD1D1F808C0BCF1000F62
:1012B00000F0F180BCF1010F0CBFC0F81080C0F845
:1012C00014804FF0080C03E0AAF5801AD145EBD04A
:1012D000FF2F99BF8146924600F10409A2F1200A2E
:1012E000D9F800804FF00F0B0BFA0AFB28EA0B0825
:1012F0000CFA0AFA48EA0A08C9F80080D1F8048012
:1013000018F0805F6FD0D6F8188048F00108C6F852
:101310001880D6F8188008F00108CDF80480DDF8B0
:10132000048023F0030808F1804808F58038D8F8D5
:1013300008A003F0030B4FEA8B0B4FF00F0909FADB
:101340000BF92AEA090ADFF88491484500F0A680E3
:1013500009F58069484500F0A48009F58069484591
:1013600000F0A28009F58069484514BF4FF00409D8
:101370004FF0030909FA0BF949EA0A09C8F808907D
:10138000D1F8048018F4803FD4F8008014BF48EAF4
:10139000070828EA0708C4F80080D1F8048018F488
:1013A000003FD4F8048014BF48EA070828EA070879
:1013B000C4F80480D1F8048018F4801FD4F80880A1
:1013C00014BF48EA070828EA0708C4F80880D1F8DB
:1013D000048018F4001FD4F80C8014BF48EA0707F3
:1013E00028EA0707E76001330432102B5FD04FF083
:1013F000010808FA03F8D1F8009008EA090738EA6A
:101400000909F0D1D1F80490B9F1120F3FF63AAFC3
:10141000B9F1120F3FF65CAF0FF2040A5AF829F047
:10142000A91200086D1400087D140008911400082A
:10143000D1120008D1120008D1120008D112000800
:10144000D1120008D1120008D1120008D1120008F0
:10145000D1120008D1120008D1120008D1120008E0
:10146000D11200087314000887140008D1F80CC0CA
:101470002EE7D1F80CC00CF1040C29E7D1F80CC010
:101480000CF1080C24E7D1F80CC00CF10C0C1FE790
:101490004FF0000C1CE74FF0040C19E74FF0000967
:1014A00068E74FF0010965E74FF0020962E703B012
:1014B000BDE8F08F0010024000040140000022103F
:1014C000000031100000321000001210000801402E
:1014D0000AB101617047090401617047C36859404E
:1014E000C160704703685A6912F4806F01D100200F
:1014F00070475A6922F480625A610423836320236F
:1015000080F83530002380F83430012070472DE911
:10151000F04104460D461646FFF726FE8046C5F309
:10152000074730E01A6842F400721A602268536973
:1015300023F4806353610423A363202384F83530AC
:10154000002384F834300120BDE8F0812EB1FFF78C
:101550000BFEA0EB0800B04215D9202384F83530EB
:10156000002384F834300320EEE723685B6925EA22
:1015700003039BB293B123685A6912F4806FD1D1EF
:10158000B6F1FF3FE2D1012FEFD023689B6925EA36
:1015900003039BB2002BEED10020D5E70020D3E758
:1015A00070B504460D46FFF7DFFD064623685B690C
:1015B00013F0800F18D12046FFF794FFB0B9B5F1B2
:1015C000FF3FF3D025B1FFF7CFFD801BA842EDD937
:1015D000A36B43F02003A363202384F8353000235A
:1015E00084F83430032000E0002070BD0120FCE7C7
:1015F0002DE9F04F83B00746884691469A460C9DE8
:101600000368196841F480711960FFF7ADFD8346E6
:101610003E68746914F0010F11D1B5F1FF3FF8D0A5
:101620002DB1FFF7A1FDA0EB0B008542F0D22023E6
:1016300087F83530002387F8343003200DE008F0B8
:10164000FE0333612A4623493846FFF760FF38B16D
:10165000BB6B042B14BF0320012003B0BDE8F08F47
:101660003B685A6901929B690193019B2946384660
:10167000FFF796FF58B1BB6B042B01D00320ECE7BA
:101680003A68136843F4007313600120E5E7BAF188
:10169000010F04D13B685FFA89F21A61DDE73B680C
:1016A0004FEA19221A6129463846FFF779FF58B1E7
:1016B000BB6B042B01D00320CFE73A68136843F4D7
:1016C000007313600120C8E73A685FFA89F3136179
:1016D000C3E700BF020001002DE9F04F83B00746C9
:1016E000884691469A460C9D0268136843F48063CD
:1016F00013600268136843F480731360FFF734FDCE
:1017000083463E68746914F0010F11D1B5F1FF3FB3
:10171000F8D02DB1FFF728FDA0EB0B008542F0D2E9
:10172000202387F83530002387F8343003200FE07A
:101730005FFA88F408F0FE0131612A4641493846D3
:10174000FFF7E5FE38B1BB6B042B14BF032001206B
:1017500003B0BDE8F08F3B685A6901929B69019321
:10176000019B29463846FFF71BFF58B1BB6B042B82
:1017700001D00320ECE73A68136843F40073136068
:101780000120E5E7BAF1010F0DD13B685FFA89F25C
:101790001A6129463846FFF703FF28B3BB6B042BB9
:1017A0001BD00320D4E73B684FEA19221A6129466F
:1017B0003846FFF7F5FE58B1BB6B042B01D0032070
:1017C000C6E73A68136843F4007313600120BFE76B
:1017D0003A685FFA89F31361DBE73A68136843F408
:1017E000007313600120B3E73A68136843F4807311
:1017F0001360FFF7B9FC06463A68536913F0010F0E
:1018000010D1B5F1FF3FF8D025B1FFF7ADFC831B38
:101810009D42F1D2202387F83530002387F83430F9
:10182000032095E744F0010414612A46054938462F
:10183000FFF76DFE00288BD0BB6B042B14BF032079
:10184000012085E70200010070B505460C46FFF750
:101850008BFC06462B685A6912F0400F22D15A6958
:1018600012F0100F11D124B1FFF77EFC801BA042B3
:10187000F0D9AB6B43F02003AB63202385F8353000
:10188000002385F83430032070BD5A6922F010021D
:101890005A610023AB63202285F8352085F8343067
:1018A0000120F1E70020EFE700286CD010B50446D6
:1018B00090F83530002B40D0242384F8353022684E
:1018C000136823F00103136000F020FE2F4BA3FBED
:1018D00000239B0C2268536061682D4A914231D8E5
:1018E0000133226813622268636829498B4233D826
:1018F0005B00B0FBF3F040F6FC73184208BF042015
:10190000D0612268E369216A0B431360226823696E
:10191000E1680B43936022686369A1690B43D3605C
:101920002268136843F0010313600020A0632023A2
:1019300084F8353084F8360010BD80F8343003F078
:10194000FBFCB9E74FF4967202FB03F3114AA2FBCA
:1019500003239B090133C4E7A16859B903EB43038F
:10196000B0FBF3F343F40040C0F30B03002B08BFBC
:101970000120C5E703EB830303EB8303B0FBF3F024
:1019800040F44040F0E70120704700BF83DE1B4376
:10199000A0860100D34D62102DE9F04782B0994630
:1019A000BDF82C5090F83530DBB2202B40F0918000
:1019B00004460F4690460A9B002B00F08E800DB91E
:1019C000012087E0FFF7D0FB064642F2107A236839
:1019D0009A6912F0020F0DD0FFF7C6FBA0EB060CC0
:1019E000D445F4D9202384F83530002384F83430EA
:1019F00002206FE094F83420012A70D0012284F88C
:101A000034201A6822F400621A60212384F83530E9
:101A1000402384F836300023A3630C9B00934B468D
:101A2000424639462046FFF7E3FDE8B1A36B042B9D
:101A30004FF0000384F834300CBF0120032049E04C
:101A4000A36B042B01D0032044E02268136843F405
:101A50000073136001203DE0E2B10A9A02320A925B
:101A60001B780B61023DADB2A5B10C992046FFF782
:101A700097FD0028E4D10A9B226813F8011B11612D
:101A80006A1E92B22168486910F0040FE4D115462D
:101A90000A93E9E70C992046FFF782FD58B1A36B42
:101AA000042B01D0032015E02268136843F400736F
:101AB000136001200EE02268136843F40073136082
:101AC000202384F83530002384F8363084F834300D
:101AD00000E0022002B0BDE8F0870120FAE7022012
:101AE000F8E72DE9F04F89B003919A46129FBDF8AF
:101AF0004C60149C90F83530DBB2202B40F03381E1
:101B000005469146002F00F0348116B94FF00108C8
:101B10002BE1FFF729FB804642F2107B2B689A6984
:101B200012F0020F0ED0FFF71FFBA0EB0800584584
:101B3000F4D9202385F83530002385F834304FF070
:101B4000020812E195F83420012A00F015810122E3
:101B500085F834201A6822F400621A60222385F87E
:101B60003530402385F836300023AB63009453466C
:101B70004A4603992846FFF7AFFD804658B1AB6B44
:101B8000042B4FF0000385F834300CBF4FF00108F0
:101B90004FF00308E9E0012E0DD0022E25D02A686F
:101BA000136843F4806313602B685A6907929B693A
:101BB0000793079B96E02A68136823F480631360F9
:101BC00072B62B685A6905929A690592059A1A6845
:101BD00042F400721A6062B621462846FFF734FECE
:101BE00070BB2B681B693B703FE02A68136843F4A5
:101BF0000063136072B62B685A6906929A6906925E
:101C0000069A1A6822F480621A6062B6FFF7ACFA8C
:101C100006462A68536913F0040F19D1B4F1FF3F47
:101C2000F8D024B1FFF7A0FA801B8442F1D2202320
:101C300085F83530002385F834304FF0030894E000
:101C4000AB6B202B14BF4FF001084FF003088CE062
:101C500072B62A68136843F4007313602B681B691B
:101C60003B7062B62B681B697B70202385F835308A
:101C7000002385F8363085F8343076E0136823F495
:101C80008063136072B62B681B693B70FFF76CFAB8
:101C900081462A68536913F0040F12D1B4F1FF3F53
:101CA000F8D02CB1FFF760FAA0EB09008442F0D223
:101CB000202385F83530002385F834304FF00308B1
:101CC00053E0136843F4007313602B681B697B7047
:101CD00062B62B681A69FB1CBA70033EB6B2002EBE
:101CE000C3D01F46032E1FD8012E3FF475AF022E1E
:101CF0008CD0FFF739FA81462A68536913F0040F34
:101D0000BCD1B4F1FF3FF8D02CB1FFF72DFAA0EB16
:101D100009008442F0D2202385F83530002385F86D
:101D200034304FF0030820E021462846FFF78CFDB1
:101D300058B92B681B693B702B685A6912F0040F65
:101D40000BD17B1C013EB6B2CBE7AB6B202B14BF93
:101D50004FF001084FF0030807E01A69BB1C7A70C6
:101D6000023EB6B2BDE74FF00208404609B0BDE8FA
:101D7000F08F4FF00108F8E74FF00208F5E7000098
:101D80002DE9F04182B00446036813F0010F36D00C
:101D90009F4B5B6803F00C03042B1DD09C4B5B68CE
:101DA00003F00C03082B12D06368B3F5803F5ED0BC
:101DB000002B7BD103F1804303F504331A6822F42E
:101DC00080321A601A6822F480221A6054E0904B24
:101DD0005B6813F4803FE7D04FF4003393FAA3F22B
:101DE0008B4A126893FAA3F3B3FA83F322FA03F34C
:101DF00013F0010F03D06368002B00F051822368B9
:101E000013F0020F00F0A980814B5B6813F00C0FF8
:101E100000F084807E4B5B6803F00C03082B78D0C5
:101E20002369002B00F0D080012292FAA2F3B3FACA
:101E300083F39B0003F1844303F584031A60FFF7E7
:101E400093F906460225724F95FAA5F33B6895FA79
:101E5000A5F2B2FA82F2D34013F0010F40F0A6804F
:101E6000FFF782F9801B0228EED903201DE2684AA1
:101E7000136843F48033136063688BB3FFF774F91E
:101E800006464FF40035624F95FAA5F33B6895FA84
:101E9000A5F2B2FA82F2D34013F0010FAFD1FFF7EF
:101EA00063F9801B6428EFD90320FEE1B3F5A02F6E
:101EB00009D0574B1A6822F480321A601A6822F44B
:101EC00080221A60D8E703F18043A3F53C331A68F7
:101ED00042F480221A601A6842F480321A60CBE71A
:101EE000FFF742F906464FF40035494F95FAA5F33E
:101EF0003B6895FAA5F2B2FA82F2D34013F0010FD3
:101F00003FF47DAFFFF730F9801B6428EED9032042
:101F1000CBE13F4B5B6813F4803F81D1022393FAFE
:101F2000A3F23B4A126893FAA3F3B3FA83F322FABB
:101F300003F313F0010F03D02369012B40F0B281AA
:101F400033480168F82292FAA2F2B2FA82F2636987
:101F5000934021F0F80213430360236813F0080F45
:101F60005DD0A369002B00F09280012292FAA2F3C7
:101F7000B3FA83F3274941F82320FFF7F5F8064623
:101F80000225234F95FAA5F395FAA5F37B6A95FAF6
:101F9000A5F2B2FA82F2D34013F0010F3CD1FFF761
:101FA000E3F8801B0228EDD903207EE11848016880
:101FB000F82292FAA2F2B2FA82F26369934021F017
:101FC000F80213430360C8E7012393FAA3F3B3FABB
:101FD00083F39B0003F1844303F5840300221A601A
:101FE000FFF7C2F806460225094F95FAA5F33B68AC
:101FF00095FAA5F2B2FA82F2D34013F0010FACD0F9
:10200000FFF7B2F8801B0228EFD903204DE100BF93
:1020100000100240800442420120FFF7ABF8236821
:1020200013F0040F55D1E369002B00F03D81A14A64
:10203000526802F00C02082A00F03A81022B00F0EC
:10204000CC804FF0807393FAA3F3B3FA83F39B0031
:1020500003F1844303F5840300221A60FFF784F838
:1020600005464FF00074934E94FAA4F3336894FA43
:10207000A4F2B2FA82F2D34013F0010F00F00E8105
:10208000FFF772F8401B0228EED903200DE101236F
:1020900093FAA3F3B3FA83F3874A002142F823109B
:1020A000FFF762F806460225824F95FAA5F395FAE6
:1020B000A5F37B6A95FAA5F2B2FA82F2D34013F047
:1020C000010FACD0FFF750F8801B0228EDD9032098
:1020D000EBE0784BDA6942F08052DA61DB6903F0B9
:1020E00080530193019B754A136843F48073136016
:1020F000FFF73AF80546714E336813F4807F06D136
:10210000FFF732F8401B6428F6D90320CDE0E368DE
:10211000012B0DD07BBB03F1804303F504331A6A16
:1021200022F001021A621A6A22F004021A6204E022
:10213000604A136A43F001031362E3688BB3FFF74D
:1021400013F8064602255B4F41F2883895FAA5F34D
:1021500095FAA5F33B6A95FAA5F2B2FA82F2D3405A
:1021600013F0010F7FF45FAFFEF7FEFF801B4045C9
:10217000ECD9032099E0052B09D04E4B1A6A22F0C6
:1021800001021A621A6A22F004021A62D5E7494B68
:102190001A6A42F004021A621A6A42F001021A62D2
:1021A000CBE7FEF7E1FF06460225424F41F28838B1
:1021B00095FAA5F395FAA5F33B6A95FAA5F2B2FA5A
:1021C00082F2D34013F0010F3FF42DAFFEF7CCFFA6
:1021D000801B4045ECD9032067E04FF0807393FAF1
:1021E000A3F3B3FA83F39B0003F1844303F5840361
:1021F00000221A60FEF7B8FF06464FF000752D4F1B
:1022000095FAA5F33B6895FAA5F2B2FA82F2D340AB
:1022100013F0010F06D0FEF7A7FF801B0228EFD9AD
:10222000032042E0236AB3F5803F2DD021494A685C
:10223000236A606A034322F4741213434B604FF025
:10224000807393FAA3F3B3FA83F39B0003F18443FF
:1022500003F5840301221A60FEF786FF05464FF05E
:102260000074144E94FAA4F3336894FAA4F2B2FA08
:1022700082F2D34013F0010F0ED1FEF775FF401B21
:102280000228EFD9032010E00A4A536823F40033F0
:10229000A1680B435360C9E7002006E0002004E07A
:1022A000012002E0012000E0002002B0BDE8F08142
:1022B0000120FAE700100240800442420070004012
:1022C00086B01E4B0FCB0DF1180C0CE90F0040F23D
:1022D0000123ADF804301A4B5B6803F00C02082AA6
:1022E00002D0184806B070474FF4701191FAA1F16E
:1022F000B1FA81F103F47012CA4018326A4412F83C
:10230000100C13F4803F14D00D4B5B684FF4003277
:1023100092FAA2F2B2FA82F203F40033D3401833F5
:102320006B4413F8142C074BB3FBF2F303FB00F0E0
:10233000D8E7054B03FB00F0D4E700BFF8760008B0
:102340000010024000127A0000093D002DE9F04122
:1023500004460D46664B1B6803F007038B420BD205
:10236000634A136823F007030B431360136803F0F9
:1023700007038B4240F0B680236813F0020F06D0AB
:102380005C4A536823F0F003A1680B435360236851
:1023900013F0010F67D06268012A2CD0022A3BD0CB
:1023A000022393FAA3F15349096893FAA3F3B3FA0A
:1023B00083F321FA03F313F0010F00F095804D49E8
:1023C0004B6823F0030313434B60FEF7CDFE064634
:1023D0006368012B29D0022B36D0464F41F2883852
:1023E0007B6813F00C0F3ED0FEF7BEFE831B434507
:1023F000F6D9032074E04FF4003393FAA3F13D497A
:10240000096893FAA3F3B3FA83F321FA03F313F001
:10241000010FD4D1012063E04FF0007393FAA3F1D0
:102420003449096893FAA3F3C9E7324F41F2883877
:102430007B6803F00C03042B15D0FEF795FE831B7D
:102440004345F5D903204BE02A4F41F288387B6899
:1024500003F00C03082B06D0FEF786FE801B4045D8
:10246000F5D903203CE0224B1B6803F00703AB4285
:102470000AD91F4A136823F007032B43136013681C
:1024800003F00703AB4231D1236813F0040F06D0E9
:10249000184A536823F4E063E1680B4353602368F0
:1024A00013F0080F07D0134A5368216923F46053CF
:1024B00043EAC1035360FFF703FF0E4B5B68F02252
:1024C00092FAA2F2B2FA82F203F0F003D3400A4A7F
:1024D000D35CD840094B18600020FEF717FE00209F
:1024E000BDE8F0810120FBE70120F9E70120F7E7D3
:1024F000002002400010024080770008BC0100204C
:10250000014B1868704700BFBC010020084B5B6896
:102510004FF4E06292FAA2F2B2FA82F203F4E063BC
:10252000D340044AD35C044A1068D840704700BFC7
:102530000010024078770008BC010020084B5B685F
:102540004FF4605292FAA2F2B2FA82F203F46053AC
:10255000D340044AD35C044A1068D840704700BF97
:102560000010024078770008BC01002070B4036AB4
:1025700023F001030362036A4468826922F0730254
:102580000D682A4323F002038D682B430B4DA842AC
:1025900006D0446082614A684263036270BC70473F
:1025A00023F00803CD682B4323F0040324F4407484
:1025B0004D698E6935432C43EBE700BF002C014089
:1025C00070B4036A23F480730362036A4468C269C7
:1025D00022F073020D682A4323F400738D6843EAE6
:1025E00005230C4DA84206D04460C2614A68C2630C
:1025F000036270BC704723F40063CD6843EA05238F
:1026000023F4806324F440544D698E69354344EAD1
:102610000514E9E7002C014030B4036A23F4805329
:102620000362036A4468C26922F4E6420D6842EA22
:10263000052223F400538D6843EA0533074DA84271
:1026400006D04460C2614A680264036230BC7047CD
:1026500024F480444D6944EA8514F2E7002C0140DB
:1026600003681F4A904210D0B0F1804F1ED0A2F5EF
:10267000943290422AD002F5806290422BD00360BF
:102680008B68C3620B6883621DE023F070034A68A5
:10269000134323F44073CA68134303608B68C36217
:1026A0000B6883620A690E4B1A630CE023F0700317
:1026B0004A68134323F44073CA68134303608B686A
:1026C000C3620B68836201234361704723F0700388
:1026D0004A681343EEE723F070034A681343E9E7BF
:1026E000002C0140B0B110B5044690F8393063B108
:1026F000022384F83930214651F8040BFFF7B0FF6C
:10270000012384F83930002010BD80F8383002F001
:1027100037FEEDE70120704770B4036A23F0100321
:102720000362036A4468826922F4E6420D6842EA61
:10273000052223F020038D6843EA05130C4DA842BF
:1027400006D0446082614A688263036270BC70474D
:1027500023F08003CD6843EA051323F0400324F4FB
:1027600040644D698E69354344EA8504E9E700BF5A
:10277000002C014038B590F83830012B66D0044663
:102780000D46012380F83830022380F839300C2AB6
:102790001AD8DFE802F00719191920191919341984
:1027A000191947000068FFF7E1FE2268936943F0BA
:1027B000080393612268936923F0040393612268FC
:1027C000936929690B439361012384F83930002010
:1027D00084F8380038BD0068FFF79EFF22689369CF
:1027E00043F4006393612268936923F480639361E7
:1027F00022689369296943EA01239361E4E7006849
:10280000FFF7DEFE2268D36943F00803D361226834
:10281000D36923F00403D3612268D36929690B4388
:10282000D361D1E70068FFF7F7FE2268D36943F46C
:102830000063D3612268D36923F48063D361226883
:10284000D369296943EA0123D361BDE70220C1E7C7
:10285000036A4FF0010C0CFA01FC23EA0C0303623B
:10286000036A8A401A4302627047000010B50446AA
:1028700001220068FFF7ECFF2268084B9A4206D05D
:102880002268136843F001031360002010BD1A464C
:102890005B6C43F400435364F2E700BF002C01403B
:1028A00090F83830012B1ED010B4844601208CF8EB
:1028B000380002238CF83930DCF800200B684C68B3
:1028C00023438C682343CC6823430C6923434C691E
:1028D000234389690B4353648CF8390000208CF83A
:1028E000380010BC70470220704790F83820012A49
:1028F00022D030B40346012083F83800022283F846
:1029000039201C68626822F0700262601C6862688C
:102910000D682A4362601C68A26822F08002A260EF
:102920001C68A26849680A43A26083F83900002045
:1029300083F8380030BC7047022070472DE9F84317
:1029400004460268136923F44053C1680B431361C2
:102950000168CA688368006903436069034322F41D
:10296000B05222F00C021343CB602268536923F467
:102970004073A1690B4353612268584B9A4256D069
:10298000FFF7C4FD00EB800000EB800063689B0054
:10299000B0FBF3F6DFF84881A8FB0636760936016E
:1029A000FFF7B4FD00EB800000EB800063689B0044
:1029B000B0FBF3F7FFF7AAFD00EB800000EB80000F
:1029C00063689B00B0FBF3F0A8FB003040094FF0B8
:1029D000640909FB10773F013237A8FB07377F09ED
:1029E00007F0F007FFF792FD00EB800000EB80009E
:1029F00063689B00B0FBF3F5FFF788FD226800EBEE
:102A0000800000EB800063689B00B0FBF3F0A8FB44
:102A10000030400909FB10531B013233A8FB03832C
:102A2000C3F343133B4333449360BDE8F883FFF79C
:102A300085FD00EB800000EB800063689B00B0FB2D
:102A4000F3F7DFF89C80A8FB07377F093F01FFF70A
:102A500075FD00EB800000EB800063689B00B0FB1D
:102A6000F3F6FFF76BFD00EB800000EB800063687E
:102A70009B00B0FBF3F0A8FB003040094FF0640965
:102A800009FB106636013236A8FB0636760906F0D9
:102A9000F006FFF753FD00EB800000EB8000636859
:102AA0009B00B0FBF3F5FFF749FD226800EB8000C7
:102AB00000EB800063689B00B0FBF3F0A8FB0030E4
:102AC000400909FB10531B013233A8FB0383C3F3F6
:102AD000431333433B449360A7E700BF00380140F2
:102AE0001F85EB5148B310B5044690F83930FBB15F
:102AF000022384F839302268D36823F40053D3606A
:102B00002046FFF71BFF2268136923F490431361EB
:102B10002268536923F02A0353612268D36843F47F
:102B20000053D3600020E063012384F8393010BDE6
:102B300080F8383002F0AEFCDAE701207047F8B5D3
:102B400005460E461C4690F83930DBB2012B02D008
:102B5000222B40F0C580002E00F0C480002A00F037
:102B6000C38095F83830012B00F0C080012385F830
:102B700038300023EB6395F83930DBB2222B0CBFE1
:102B80003223122385F83930AA843CE0FEF7ECFAB0
:102B900007462A68136813F0800F24D1B4F1FF3F71
:102BA000F8D024B1FEF7E0FAC01B8442F1D22A68C3
:102BB000D36823F08003D3602A68D36823F020030E
:102BC000D3602A68D36823F48073D3602A6853697A
:102BD00023F001035361012385F83930002385F880
:102BE000383003207DE03388C3F3080353602B693A
:102BF0000BB9023604E0013602E016F8012B5A60E8
:102C0000EA8C002A32D0013AEA84AB68B3F5805FDF
:102C1000BCD0FEF7A9FA07462B681A6812F0800F9D
:102C2000EBD1B4F1FF3FF8D024B1FEF79DFAC01B01
:102C30008442F1D22A68D36823F08003D3602A68E3
:102C4000D36823F02003D3602A68D36823F4807309
:102C5000D3602A68536923F001035361012385F887
:102C60003930002385F8383003203AE0FEF77CFA4B
:102C700006462A68136813F0400F24D1B4F1FF3FD1
:102C8000F8D024B1FEF770FA831B9C42F1D22A6877
:102C9000D36823F08003D3602A68D36823F020032D
:102CA000D3602A68D36823F48073D3602A68536999
:102CB00023F001035361012385F83930002385F89F
:102CC000383003200DE095F83930DBB2322B0CBFE1
:102CD0002223012385F83930002085F8380000E0F0
:102CE0000220F8BD0120FCE70120FAE70220F8E706
:102CF00090F83930DBB2012B01D0122B2CD10029F6
:102D00002CD0002A2CD090F83830012B2AD0012367
:102D100080F8383081628285C2850023C36390F8D1
:102D20003930DBB2122B0CBF3223222380F839302A
:102D3000002380F838300168CA6842F48072CA60A3
:102D400001684A6942F001024A610168CA6842F0BA
:102D50002002CA6018467047022070470120704761
:102D60000120704702207047704708B590F839304D
:102D700003F0EF03222B01D0022008BD8368B3F5D6
:102D8000805F29D00369002B3AD103685A68836AAF
:102D9000591C81621A70C38D013B9BB2C385002B05
:102DA0003BD10268D36823F02003D36090F8393018
:102DB000DBB2322B2DD00268D36823F48073D3604A
:102DC0000268536923F001035361012380F839300D
:102DD00002F022FA0020D0E7826A036943B903684F
:102DE0005B68C3F308031380836A02338362D2E70C
:102DF00003685B68DBB21380836A01338362CAE7CE
:102E000003685B68826A511C816203F07F03137060
:102E1000C1E7122380F83930DAE70020ADE77047C8
:102E200010B5044602681368D068516913F00F0F9B
:102E300009D113F0200F0DD010F0200F0AD020463A
:102E4000FFF793FF13E001F0010100F4907C5CEACE
:102E5000010C0DD113F0800F02D010F0800F5DD166
:102E600013F0400F03D010F0400F40F0868010BDEB
:102E700013F0010F06D010F4807F03D0E26B42F014
:102E80000102E26313F0040F0DD0002900F08680E8
:102E9000E26B42F00202E26313F0020F07D113F07B
:102EA000080F0BD10EE013F0020F7AD051B1E26B94
:102EB00042F00402E26313F0080F03D0E26B42F029
:102EC0000802E263E26B002AD1D013F0200F02D097
:102ED00010F0200F0ED121684B69E26B03F0400324
:102EE00002F00802134309D12046FFF798FF0023A0
:102EF000E363BCE72046FFF738FFECE7CB6823F439
:102F00009073CB602268536923F00103536101235E
:102F100084F839302046FFF782FFA8E794F839306B
:102F200003F0DF03122BA2D1A368B3F5805F15D0A5
:102F3000236A591C21621B785360E38C013B9BB2CE
:102F4000E384002B93D12268D36823F08003D360FD
:102F50002268D36843F04003D36088E7236A1B8864
:102F6000C3F30803536023691BB9236A0233236246
:102F7000E3E7236A01332362DFE7D36823F04003EA
:102F8000D36094F83930DBB2322B0CBF22230123FB
:102F900084F839302046FFF7E7FE68E713F0020FA8
:102FA00090D113F0080F8DD000298BD086E7000058
:102FB00008B53B231A4A7521D02001F0E9FA012314
:102FC00080226B21D02001F0C1FA01231A466B2127
:102FD000D02001F0BBFA012300226C21D02001F0A7
:102FE000B5FA012300221921D02001F0AFFA012304
:102FF00003221D21D02001F0A9FA012303221A2166
:10300000D02001F0A3FA012310221B21D02001F0CF
:103010009DFA012308221C21D02001F097FA08BD57
:103020000C77000870B584B0274B93E8030002903A
:10303000ADF80C1058230193244B0093062302AAE9
:103040003B21D02001F0D8FA9DF808309DF8090006
:1030500040EA032000B21E4B18809DF80A209DF81C
:103060000B5045EA02252DB25D809DF80C209DF89D
:103070000D4044EA022424B29C80164EFDF7E6FD82
:103080004FF08141FDF736FE4FF06051FDF732FE03
:1030900030602846FDF7DAFD4FF08141FDF72AFE4A
:1030A0004FF06051FDF726FE70602046FDF7CEFD23
:1030B0004FF08141FDF71EFE4FF06051FDF71AFE03
:1030C000B06004B070BD00BFE87600080C7700085F
:1030D000500200207C020020F0B585B02A4B93E816
:1030E00003000290ADF80C107B230193274B009353
:1030F000062302AA4321D02001F07EFA9DF8083071
:103100009DF8090040EA032000B2214B18809DF889
:103110000A209DF80B5045EA02252DB25D809DF8EE
:103120000C209DF80D4044EA022424B29C80194EE4
:10313000FDF78CFD1849FDF7DDFD4FF06051FDF7FF
:10314000D9FD164F3968FDF7CBFC30602846FDF7F6
:103150007DFD1149FDF7CEFD4FF06051FDF7CAFD31
:103160007968FDF7BDFC70602046FDF76FFD0A49E8
:10317000FDF7C0FD4FF06051FDF7BCFDB968FDF7EC
:10318000AFFCB06005B0F0BDE87600080C77000831
:10319000480200207002002000007A441C00002039
:1031A00010B584B0012322223721D02001F0CEF9BE
:1031B00001231A466A21D02001F0C8F92D4CAD2315
:1031C00022460021182001F0E3F901231A460B21C1
:1031D000182001F0BBF9012300220A21182001F078
:1031E000B5F901230F220A21182001F0AFF9B62307
:1031F00001930094032303AA1021182001F0FCF985
:103200001D4C9DF80C008038FDF720FD4FF06E51ED
:10321000FDF770FD4FF07E51FDF764FC20609DF8D6
:103220000D008038FDF712FD4FF06E51FDF762FD85
:103230004FF07E51FDF756FC60609DF80E0080381F
:10324000FDF704FD4FF06E51FDF754FD4FF07E5138
:10325000FDF748FCA060012300220A21182001F09C
:1032600075F9012316220A21182001F06FF904B024
:1032700010BD00BF0C770008580200202DE9F04770
:1032800084B0404B93E803000290ADF80C10090C99
:103290008DF80E10D7233C4A0221182001F078F94E
:1032A00010F0010F02D104B0BDE8F087DA230193DA
:1032B000354B0093072302AA0321182001F09CF943
:1032C0009DF80E3013F0080F57D19DF809309DF886
:1032D000080040EA032000B22C4B18809DF80B2018
:1032E0009DF80A5045EA02252DB25D809DF80D201B
:1032F0009DF80C4044EA022424B29C80244BD3F86D
:1033000000A0244EFDF7A2FC5146FDF7F3FCDFF8C8
:103310008890D9F80010FDF7EDFCDFF88080D8F830
:103320000010FDF7DDFB1E4F3968FDF7E3FC306050
:103330002846FDF78BFC5146FDF7DCFCD9F804105C
:10334000FDF7D8FCD8F80410FDF7CAFB7968FDF743
:10335000D1FC70602046FDF779FC5146FDF7CAFCB0
:10336000D9F80810FDF7C6FCD8F80810FDF7B8FB2F
:10337000B968FDF7BFFCB06095E70A4A538801338E
:10338000538090E7F07600080C7700084002002098
:103390003400002064020020580200202800002091
:1033A00010000020A40B002008B5FFF701FEFFF776
:1033B000F7FE034800F048FA002000F04BFA08BD81
:1033C0009A99193F08B5034B5968034801F028F84A
:1033D00008BD00BF880200200800002008B5034B8C
:1033E0001968034801F01CF808BD00BF88020020DE
:1033F0000000002010B50B4B9C680B492046FDF7E0
:103400002BFE48B109492046FDF712FE20B10749BD
:103410002046FDF767FB03E005492046FDF760FB0A
:1034200010BD00BF88020020000034C30000B44279
:103430000000874330B587B0FFF7F4FDFFF74CFE7F
:10344000FFF71CFF02F09CF8344D2860344C2368D1
:10345000C01AFDF7F7FB3349FDF700FD00F0FAF95C
:103460002B682360304B314A116801F100415068EC
:1034700000F100402E4C05942E4CA568049565681B
:103480000395246802949C6804F1004401941C682C
:1034900000945B68926800F0E3F9274B2748B0F985
:1034A0000020274981FB0254D217C2EB64121A8014
:1034B000B0F9022081FB0254D217C2EB64125A8089
:1034C000B0F9042081FB0201D217C2EB61129A808D
:1034D0001C4A1188D9805188198192885A811A4AC8
:1034E000118899815188D98192881A82FFF776FFD5
:1034F000164C1749FDF7FEFBFDF7C2FD2080FFF7D4
:1035000061FF1349FDF7F6FBFDF7BAFD6080FFF799
:1035100071FFFDF7B5FDA08007B030BD940200201B
:103520009802002000007A44700200207C020020F3
:103530008802002064020020900B0020500200202E
:103540001F85EB514802002040020020800B002024
:103550000000204100B585B08C2301930A4B0093F5
:10356000032303AA0021EE2001F030F89DF80C207F
:103570009DF80D301B0243EA02439DF80E001843EC
:1035800005B05DF804FB00BF20770008014B186808
:10359000704700BFC002002070B5794B1B7813B193
:1035A000784B1B78EBB901F0E7FF774B1B68C01A2B
:1035B0000A2806D9724B1B78724A1278134300F01E
:1035C000BB8001F0D9FF714B1B68C01A0A2807D9CC
:1035D0006B4B1B7823B16B4B1B78002B00F0BF802B
:1035E00070BD6B4E72896B4B1B68A3EB02234FEAD5
:1035F000E37CB089A0FB032100FB0C11D20D42EA51
:10360000412202F5FA643089A0FB031500FB0C553A
:10361000C90941EA4561ED11B0880004091845F176
:103620000005B6F806E0AEFB03300EFB0C001B0AEB
:1036300043EA006300127688F6039B1940F100000C
:10364000B4F5FA6F75DA02FB02F202EB82024FEA7E
:10365000620C92109B1A60EBE2724F480668A3FB63
:10366000063006FB02025B0D43EAC2235215B1EBA2
:103670000C0165EBEC755B1A62EB0500DB0B43EAB2
:103680004040FDF7E3FA4549FDF7E8FB0546444BAA
:1036900018602046FDF7DAFA4049FDF7DFFB414BA1
:1036A000186041492846FDF7D9FBFCF7BDFE30A361
:1036B000D3E9002302F05EFC02460B4600203B49A2
:1036C000FCF752FD2CA3D3E90023FCF705FFFDF71F
:1036D000B3F90646364B1860364C04F14C05002011
:1036E000616844F8041BFDF7FDF9AC42F8D1314B99
:1036F000DE643146FDF7F6F92F49FDF7AFFB2F4B9E
:103700001860FDF7BDFC642303FB00F02C4B186030
:1037100000231B4A13701B4A13702A4A1178012296
:103720005031EE2000F012FF01F026FF164B18601A
:1037300039E7002294468DE7FFF70CFF154B186020
:1037400001220F4B1A701F4B197800234031EE20D5
:1037500000F0FCFE01F010FF0C4B186031E7FFF7A2
:10376000F9FE0D4B1860074B01221A7038E700BFB5
:1037700000000060955BC83F0000000040A5E540E8
:10378000A5020020A4020020A00200209C0200202C
:10379000A8020020BC020020B80200200000C8429D
:1037A000C8020020CC02002000507D440000F03F01
:1037B000C4020020D00200200000A041C00200206E
:1037C000780B0020380000202DE9F04184B001235F
:1037D0001A461E21EE2000F0B9FE0A2001F0D4FEA8
:1037E000154B08221A70154D05F110082C460027BC
:1037F000134EADF80C70C5F1A00121447C23019358
:103800000096022303AA89B2EE2000F0F5FE9DF88F
:103810000C209DF80D3043EA022324F8023B444576
:10382000E7D1084B03F15001002243F8042F8B42EB
:10383000FBD104B0BDE8F08138000020A8020020D0
:1038400020770008CC020020014B1860704700BFB1
:1038500024030020014B1860704700BF20030020A4
:103860002DE9F04F99B00E4691469846164BD3F885
:1038700000A0D3F804B09D68DC6808900146FDF70D
:1038800039FA074631463046FDF734FA01463846E4
:10389000FDF728F907464946CDF824904846FDF73C
:1038A00029FA01463846FDF71DF9FCF7BDFD02F087
:1038B000C9FBFDF7C1F807460021FDF7AFFB28B1B2
:1038C00019B0BDE8F08F00BF3C00002024990846E5
:1038D000FDF710FA814625990846FDF70BFA0146D7
:1038E0004846FDF7FFF8814626990846FDF702FA9B
:1038F00001464846FDF7F6F8FCF796FD02F0A2FBFC
:10390000FDF79AF881460021FDF788FB0028D7D102
:103910004046FCF789FDA8A3D3E90023FCF7DCFDB2
:10392000FDF78AF80A902298FCF77EFDA2A3D3E95E
:103930000023FCF7D1FDFDF77FF80B902398FCF7EF
:1039400073FD9DA3D3E90023FCF7C6FDFDF774F8D2
:103950000C9051465046FDF7C5F80290594658461E
:10396000FDF7C0F8049029462846FDF7BBF80590FE
:1039700021462046FDF7B6F8129051465046FDF715
:10398000B9F90F9059465046FDF7B4F91090294601
:103990005046FDF7AFF9139059465846FDF7AAF97E
:1039A000069021465846FDF7A5F90D902946284670
:1039B000FDF7A0F9079021462046FDF79BF90E90F0
:1039C00039464FF07E50FDF749FA119049464FF0C5
:1039D0007E50FDF743FA074601462498FDF78AF921
:1039E000039039462598FDF785F981463946269892
:1039F000FDF780F98046039F39460298FDF77AF972
:103A0000149049460298FDF775F91590CDF8048099
:103A100041460298FDF76EF9804639460498FDF755
:103A200069F9169039460F98FDF764F9074615991C
:103A30002046FDF75FF901463846FDF751F8074685
:103A400041462846FDF756F901463846FDF74AF843
:103A5000074603990698FDF74DF901463846FDF7EC
:103A600041F8074649460498FDF744F92946FDF711
:103A700041F901463846FDF735F8074601990498A3
:103A8000FDF738F92146FDF735F901463846FDF7CF
:103A900029F8074603990798FDF72CF9014638469F
:103AA000FDF71EF8074603990E98FDF723F9014626
:103AB0003846FDF715F8074614992046FDF71AF920
:103AC000179049460F98FDF715F901461798FDF72D
:103AD00009F8179041465846FDF70CF9014617982A
:103AE000FCF7FEFF804616992846FDF703F90146CC
:103AF0004046FCF7F7FF804649460698FDF7FAF87E
:103B000001464046FCF7ECFF804649460798FDF722
:103B1000F1F801464046FCF7E5FF8046019905981B
:103B2000FDF7E8F82146FDF7E5F801464046FCF7C9
:103B3000D9FF804649460E98FDF7DCF8014640461D
:103B4000FCF7CEFF804639463846FDF7D3F80746E6
:103B500041464046FDF7CEF801463846FCF7C2FF25
:103B6000FCF762FC02F06EFAFCF766FF0746DDF830
:103B700050E00EF100402946FDF7BCF8804615994B
:103B80005846FDF7B7F801464046FCF7ABFF8046C4
:103B900001990F98FDF7AEF801464046FCF7A2FFE9
:103BA000804616992046FDF7A5F801464046FCF7E9
:103BB00099FF804604E000BF399D52A246DF913F45
:103BC00001990698FDF796F801464046FCF788FFF4
:103BD000804649460598FDF78DF82146FDF78AF89D
:103BE00001464046FCF77EFF804601990798FDF7A5
:103BF00081F801464046FCF773FF804601990E9814
:103C0000FDF778F801464046FCF76CFF8046014618
:103C1000FCF768FF14900D9A11461046FCF762FFFE
:103C20000F9002992846FDF765F801460F98FCF7BA
:103C300057FF0F9011990898FDF75CF801460F980F
:103C4000FCF74EFF0890DDF840C061466046FCF787
:103C500049FF0F9005992046FDF74CF801460F9853
:103C6000FCF740FF0F9011993046FDF743F80146ED
:103C70000F98FCF735FF0F9041462846FDF73AF8BC
:103C8000159007994FF07C50FCF72AFF0E99FCF72E
:103C900027FF3946FDF72EF8064613990D98FCF7D5
:103CA0001FFF4146FDF726F801463046FCF71AFF94
:103CB0000399FCF715FF039007F100402146FDF73B
:103CC00019F8169041465846FDF714F81790294602
:103CD0005846FDF70FF8064621465046FDF70AF80C
:103CE00001463046FCF7FCFE3946FDF703F8064670
:103CF00021462846FCF7FEFF1099FCF7F3FE4146EB
:103D0000FCF7F8FF01463046FCF7ECFE4946FCF7AD
:103D1000E7FE0E9039462846FCF7ECFF1090069916
:103D20004FF07C50FCF7DCFEDDF81C904946FCF7B8
:103D3000D7FE4146FCF7DEFF06460D991398FCF7C7
:103D4000D1FE3946FCF7D6FF01463046FCF7CAFEE5
:103D50000199FCF7C5FE0190059A02F1004008990F
:103D6000FCF7C8FF064604990F98FCF7C3FF01460D
:103D70003046FCF7B7FE064603991598FCF7BAFFE4
:103D800001463046FCF7ACFE064617991698FCF73C
:103D9000A9FE0E99FCF7AEFF01463046FCF7A2FEE5
:103DA000064601991098FCF7A5FF01463046FCF73E
:103DB00099FE0790069B19461846FCF793FE0146AC
:103DC0004FF07E50FCF78CFE064649464846FCF70D
:103DD00089FE01463046FCF783FE06461199099894
:103DE000FCF788FF01463046FCF77AFE81464146E3
:103DF0002046FCF77FFF099041465046FCF77AFFCA
:103E0000804612990898FCF775FF064602990F98AC
:103E1000FCF770FF01463046FCF764FE06464FF0A3
:103E200081415846FCF766FF4946FCF763FF0146AF
:103E30003046FCF755FE064609990398FCF75AFFF1
:103E400001463046FCF74EFE0646CDF8348041462A
:103E50001098FCF747FE0E99FCF74CFF01463046E0
:103E6000FCF740FE8046169B03F100461499584625
:103E7000FCF740FF01463046FCF732FE0199FCF7A3
:103E800039FF01464046FCF72DFE0690394638467C
:103E9000FCF728FE00F1004839465846FCF72AFF97
:103EA000064639465046FCF725FF0746DDF808C0B0
:103EB0000CF100400899FCF71DFF029012990F9831
:103EC000FCF718FF01460298FCF70CFE02904FF039
:103ED00081412846FCF70EFF4946FCF70BFF0146DF
:103EE0000298FCF7FDFD814629464046FCF702FF9B
:103EF0000D99FCF7F5FD0399FCF7FCFE01464846D9
:103F0000FCF7F0FD814631460998FCF7EBFD0E9970
:103F1000FCF7F0FE01464846FCF7E4FD81461499A3
:103F20002846FCF7E7FE01463846FCF7D9FD019923
:103F3000FCF7E0FE01464846FCF7D4FD02900499E8
:103F40000898FCF7D7FE814605990F98FCF7D2FE3A
:103F500001464846FCF7C6FD814621464046FCF72F
:103F6000C9FE1799FCF7BEFD0399FCF7C3FE014695
:103F70004846FCF7B7FD804639461598FCF7B0FD7A
:103F80000E99FCF7B7FE01464046FCF7ABFD07462D
:103F900031460198FCF7AEFE01463846FCF7A2FD1B
:103FA0000746079A11461046FCF7A4FE0646069BF4
:103FB00019461846FCF79EFE01463046FCF792FD76
:103FC000064602990846FCF795FE01463046FCF786
:103FD00089FD0646394608973846FCF78BFE0146B0
:103FE0003046FCF77FFDFCF71FFA02F02BF8FCF7D8
:103FF00023FD01464FF07E50FCF730FF0190AE4BA1
:10400000D3F800901E6803961F680497D3F800C089
:10401000CDF814C0A94ED6F800800BF100400A99E3
:10402000FCF768FE07460B992846FCF763FE01463D
:104030003846FCF755FD07460C992046FCF75AFE1A
:1040400001463846FCF74CFD4FF07C51FCF752FE20
:10405000074601990798FCF74DFE4946FCF74AFED2
:1040600001463846FCF73CFD4146FCF743FE51460D
:10407000FCF738FD8146D6F800800A995046FCF7D7
:1040800039FE07460C992846FCF734FE01463846AF
:10409000FCF728FD07460B992046FCF72BFE01464E
:1040A0003846FCF71DFD4FF07C51FCF723FE074618
:1040B00001990698FCF71EFE0399FCF71BFE0146CA
:1040C0003846FCF70DFD4146FCF714FE5946FCF757
:1040D00009FD8046336803930B995046FCF70AFEAE
:1040E00007460C995846FCF705FE01463846FCF792
:1040F000F7FC07460A992046FCF7FCFD01463846C6
:10410000FCF7F0FC4FF07C51FCF7F4FD07460199F9
:104110000298FCF7EFFD0499FCF7ECFD01463846E8
:10412000FCF7DEFC0399FCF7E5FD2946FCF7DAFC19
:10413000074636680C995046FCF7DCFD82460B9921
:104140005846FCF7D7FD01465046FCF7CBFC8246AB
:104150000A992846FCF7CEFD01465046FCF7C0FC04
:104160004FF07C51FCF7C6FD054601990898FCF715
:10417000C1FD0599FCF7BEFD01462846FCF7B0FCE1
:104180003146FCF7B7FD2146FCF7ACFC0646494634
:104190004846FCF7AFFD044641464046FCF7AAFD01
:1041A00001462046FCF79EFC044639463846FCF79B
:1041B000A1FD01462046FCF795FC044631463046F9
:1041C000FCF798FD01462046FCF78CFCFCF72CF927
:1041D00001F038FFFCF730FC01464FF07E50FCF751
:1041E0003DFE054601464846FCF784FD8146344CB9
:1041F000206029464046FCF77DFD804660602946E8
:104200003846FCF777FD0746A06029463046FCF7A4
:1042100071FD0146E0604046FCF76CFD05463946FD
:104220004846FCF767FD01462846FCF759FC014665
:10423000FCF758FCFCF7F8F801F072FE0022214B65
:10424000FCF74AF91AA3D3E90023FCF76FFAFCF74D
:10425000F3FB279B186025686768D4F808A0D4F89A
:104260000CB029462846FCF745FD06463946384637
:10427000FCF740FD01463046FCF732FC80465146D3
:104280005046FCF737FD01464046FCF729FC8046C6
:1042900059465846FCF72EFD01464046FCF722FCE5
:1042A000FCF7C2F88046894639460DE0AFF300803E
:1042B000182D4454FB210940240300202003002032
:1042C0003C000020008066402846FCF713FD0746AE
:1042D00059465046FCF70EFD01463846FCF702FCF5
:1042E0000146FCF7FFFBFCF79FF842464B4601F006
:1042F0003FFE00222C4BFCF7EFF829A3D3E9002363
:10430000FCF714FAFCF798FB279B5860D4F804904C
:10431000D4F808A0D4F80C8049464846FCF7EAFCDB
:104320003146FCF7DFFB044651465046FCF7E2FC01
:1043300001462046FCF7D4FB044641464046FCF7C4
:10434000D9FC01462046FCF7CBFBFCF76DF806468E
:104350000F4651464846FCF7CDFC044641462846E8
:10436000FCF7C8FC01462046FCF7BCFB0146FCF705
:10437000B9FBFCF759F832463B4601F0F9FD002243
:10438000094BFCF7A9F806A3D3E90023FCF7CEF903
:10439000FCF752FB279B9860FFF792BAAFF30080BF
:1043A000182D4454FB210940008066403FDF7047D0
:1043B00008B5054B1B680BB1002008BD0022014663
:1043C0000120FFF7F3FFF8E728030020B0F80438D6
:1043D000B0F8043801339BB2A0F80438B0F80238C2
:1043E0009BB2C154B0F802389BB201335A42C3F3B6
:1043F0000A03C2F30A0258BF53429BB2A0F8023824
:10440000012070470023A0F80038A0F80238A0F877
:1044100004381A46C2540133B3F5006FFAD170471D
:1044200070B504460D46466831464FF07E50FCF7A5
:1044300057FB2946FCF75EFC054621683046FCF731
:1044400059FC2946FCF74EFB206070BD70B50E4646
:1044500015460D4CB0FA80F252094FF40041204647
:10446000FDF736F8B6FA86F252094FF4804120463D
:10447000FDF72EF8B5FA85F252094FF400512046A7
:10448000FDF726F870BD00BF00100140F8B5032706
:10449000002601256424324631462846FFF7D6FF20
:1044A000204601F071F8324629463046FFF7CEFF2C
:1044B000204601F069F82A4631463046FFF7C6FF2C
:1044C000204601F061F8013FE5D101221146104676
:1044D000FFF7BCFFF8BD0000014B1B681864704774
:1044E000F80B0020014B1B68D8637047F80B0020C5
:1044F000014B1B6898637047700C0020014B1B68D0
:10450000D8637047340C002010B504210848FEF72A
:10451000ADF908210748FEF7A9F9074C0821204604
:10452000FEF7A4F90C212046FEF7A0F910BD00BF4C
:10453000700C0020340C0020F80B002008B500F0AF
:10454000ABFAFFF7E1FFFFF7A1FF08BD10B586B09A
:104550001C468DF81420C82302930123019305AA59
:1045600000920A4601460848FDF716FA10B934B918
:1045700006B010BD1B21054800F00CFAF7E7322009
:1045800001F002F8F4E700BFE80C002030770008E3
:1045900030B587B014461D4600238DF81430C8236B
:1045A00002930123019305AA00920A460146064898
:1045B000FDF797FA18B99DF8140007B030BD2946E9
:1045C000204600F0E7F9F6E7E80C002010B584B0CB
:1045D000C82402940193009201230A46014605482B
:1045E000FDF77FFA08B904B010BD0799069800F0EE
:1045F000D1F9F8E7E80C0020C3B12DE9F8430646ED
:104600001F4617441446891A8DB2DFF824904FF0E4
:104610004C08291943464A4689B23046FFF7B8FF8D
:1046200004F8010BBC42F4D1BDE8F883704700BF29
:104630003077000808B500F09FFF1B4B1B68C01ABD
:10464000012810D800F098FF184B1B68C01A0228E8
:1046500010D800F091FF164B1B68C01A032810D821
:10466000FEF79AFF08BD00F087FF0F4B1860FEF7BA
:10467000E1FEE7E700F080FF0C4B186000F0E2FC81
:10468000E7E700F079FF0A4B186000F0E7F800F068
:1046900005F900F033F900F043F900F053F900F0A8
:1046A00019F900F061F9DBE7440B00203C0B002016
:1046B000400B002008B5FFF741FF00F0CFFDFEF7EB
:1046C00073FEFFF781F800F027FC08BD08B5002055
:1046D000FFF76EFEFFF7EEFFFCF73EFDFFF7AAFFC8
:1046E000FAE708B50020FFF7F7FE0020FFF7FAFE13
:1046F0000020FFF7FDFE0020FFF700FF08BD0000CF
:1047000010B5B0F57A7FA8BF4FF47A7020EAE07058
:104710001B4C2060B1F57A7FA8BF4FF47A7121EA73
:10472000E1716160B2F57A7FA8BF4FF47A7222EA34
:10473000E272A260B3F57A7FA8BF4FF47A7323EADE
:10474000E373E360FFF7C8FE6068FFF7CBFEA06885
:10475000FFF7CEFEE068FFF7D1FE0A4B226802F5B4
:104760007A721A80626802F57A725A80A26802F53B
:104770007A729A80E26802F57A72DA8010BD00BF20
:10478000480B0020880B00202DE9F8430646884698
:1047900015461C46FCF7A4F9074641463046FCF78F
:1047A000A1F9064629463846FCF79AF92146FCF756
:1047B00099F91949FCF794F9FCF762FC81462946FE
:1047C0003046FCF78DF92146FCF78AF91249FCF7CF
:1047D00087F9FCF755FC804629463846FCF782F9F4
:1047E0002146FCF77DF90C49FCF77AF9FCF748FC07
:1047F000074629463046FCF775F92146FCF772F961
:104800000549FCF76DF9FCF73BFC4B46424639463F
:10481000FFF776FFBDE8F88300007A44F8B5044658
:104820000E4617460C4800F027FDFDB2284600F062
:10483000E5FC204600F0E2FC65404FB134463E44C2
:10484000207800F0DBFC14F8013B5D40B442F7D166
:10485000284600F0D3FCF8BD4077000800B583B0CF
:104860000D4BE9221A7003225A7000229A7004211B
:10487000D9701A715A719A7193E803000090ADF8DB
:104880000410090C8DF80610072269466420FFF712
:10489000C5FF03B05DF804FBB00B002000B585B088
:1048A0000B4A0723938000232A21D180138193721E
:1048B00001AB07CA03C323F8022B120C1A700B2298
:1048C00001A96520FFF7AAFF05B05DF804FB00BF52
:1048D000A40B002010B586B00DF1040C064C0FCCD3
:1048E000ACE80F002368ACF80030122201A9662062
:1048F000FFF794FF06B010BD900B002000B583B009
:10490000064A6B4692E8030083E803000822194632
:104910006820FFF783FF03B05DF804FB880B0020DD
:1049200000B583B0064B93E803000090ADF8041087
:10493000062269466C20FFF771FF03B05DF804FBA7
:10494000800B002000B583B0064B93E80300009075
:10495000ADF80410062269466D20FFF75FFF03B033
:104960005DF804FB780B002010B588B0EC46084CCD
:104970000FCCACE80F0094E80F00ACE80700ACF8EF
:1049800000301E2269467020FFF748FF08B010BDB6
:10499000580B002080B506460D461C4C01224FF4F2
:1049A00080412046FCF794FD00224FF40041204650
:1049B000FCF78EFD00224FF400512046FCF788FDE5
:1049C000DFF84C80134F4FF480412046FCF786FD02
:1049D0004FF400412046FCF781FD4FF40051204682
:1049E000FCF77CFD404600F047FC304600F044FCFC
:1049F000384600F041FC284600F050FC0A2000F048
:104A0000FDFB4FF4FA7000F0BFFDDCE70010014041
:104A1000447700085077000800B591B00223069350
:104A200001220A9210220B920D9300230E934FF451
:104A300060130F9306A8FDF7A3F908BB0F2301939A
:104A400002210291002303934FF4806204920593A4
:104A500001A8FDF77BFCB8B9FDF752FD0C4BA3FB99
:104A600000308009FCF7DEFB0420FCF7EFFB00229E
:104A700011464FF0FF30FCF793FB11B05DF804FBDB
:104A80003C210448FFF786FF49210248FFF782FFD7
:104A9000D34D62105C770008F0B595B0FCF74AFB87
:104AA000FFF7BAFFA94B9A6942F010029A619A691E
:104AB00002F010020192019A9A6942F004029A618E
:104AC0009A6902F004020292029A9A6942F008027C
:104AD0009A619B6903F008030393039B9C4F002298
:104AE0004FF460413846FCF7F3FC9A4C0022202139
:104AF0002046FCF7EDFC4FF460430D9301260E9623
:104B0000022510950DA93846FCF7B0FB20230D9324
:104B10000E9610950DA92046FCF7A8FB8E488F4BEA
:104B200003608F4B436000238360C3604FF4804277
:104B3000026143618361C3610362FCF7B5FE002833
:104B400040F0E2808748884B03604FF4E1334360D4
:104B500000238360C36003610C2242618361C361EF
:104B6000FDF7C0FF002840F0D3808048804B0360F1
:104B700002234360002383604FF47A72C2600361B2
:104B80004361FDF7AFFD002840F0C7800023049388
:104B9000059304A97548FDF7A8FE002840F0C180E0
:104BA000602306930023079308930A930B930C93B7
:104BB0000C2206A96D48FDF7DDFD002840F0B58008
:104BC00000230D930E930F93109311934FF4005203
:104BD000129213930DA96548FDF762FE002840F07C
:104BE000A880624800F010FC62484FF080430360E8
:104BF00002234360002383604FF47A72C260036132
:104C0000FDF770FD002840F098800023069307937D
:104C100006A95848FDF769FE002840F092806023FD
:104C20000D9300230E930F93119304220DA9514865
:104C3000FDF7A0FD002840F0A9804E4800F0E4FBFD
:104C40004D484E4B036002234360002383604FF4C2
:104C50007A72C2600361FDF745FD002840F09A803A
:104C600000230693079306A94348FDF73EFE00285C
:104C700040F0948060230D9300230E930F931193C3
:104C800008220DA93C48FDF775FD002840F08A80F8
:104C90000C220DA93848FDF76DFD002840F08780F3
:104CA000354800F0B1FB3648364B036002234360C1
:104CB000002383604FF47A72C2600361FDF712FD36
:104CC000002879D100230693079306A92C48FDF705
:104CD0000CFE002875D160230D9300230E930F93D3
:104CE000119308220DA92648FDF744FD00286DD137
:104CF0000C220DA92248FDF73DFD00286BD120486C
:104D000000F082FB15B0F0BD6B211F48FFF742FE9B
:104D100040F251111C48FFF73DFE88211A48FFF769
:104D200039FE8F211848FFF735FE9A211648FFF704
:104D300031FEA6211448FFF72DFEC3211248FFF7CC
:104D400029FECA211048FFF725FE00BF00100240CF
:104D50000010014000080140E80C00200054004011
:104D6000801A0600B80B002000380140AC0C00206F
:104D7000002C0140700C0020340C00200004004086
:104D8000F80B0020000800405C770008D32114488D
:104D9000FFF700FEF0211248FFF7FCFDF721104855
:104DA000FFF7F8FD4FF480710D48FFF7F3FD40F277
:104DB00005110B48FFF7EEFD4FF491710848FFF71E
:104DC000E9FD40F229110648FFF7E4FD4FF499711F
:104DD0000348FFF7DFFD40F237110148FFF7DAFD26
:104DE0005C7700082DE9F0410446C069616A256BD3
:104DF000FBF778FE2946FBF773FEA0622368032BBE
:104E000019D06168A568E668A06AFBF773FFA06324
:104E1000A16AE06BFBF766FEE063E06B3949FCF7E3
:104E200007F9002832D1E06B3749FCF71FF9002859
:104E300057D1E36B2BE0A06A0021FCF717F9D0B142
:104E4000A06A3249FCF712F90028DAD0A66AA06AF3
:104E50002F49FBF74FFF0546A06A0021FCF706F932
:104E600080B1A16A2846FBF7F9FF01463046FBF7FF
:104E700037FEA062C5E7A06A2649FCF7D9F80028EA
:104E8000BFD0E3E7A16A01F10041EBE71D4BE3630B
:104E9000206B616BFBF724FE2064D4F83880E06B54
:104EA000276C2946FBF726FF4146FBF71BFE05460C
:104EB00031463846FBF71EFF01462846FBF710FE39
:104EC000A064E06CFBF7C2FE0546A06C0D49FCF740
:104ED000AFF840B9A06C0C49FCF7C8F880B9A16CD8
:104EE00002E0094BD3E707492846FBF703FFA0641C
:104EF000236B6363A36AE362236D6365BDE8F0819E
:104F00000149F1E70000FAC30000FA43000034430E
:104F10000000B443000034C330B51F4C0123E364E8
:104F20001E48C3641E494FF0FF32CA641D4AD36451
:104F30001D4B23621D4B03621D4B0B62002313624A
:104F40001C4D6560DFF870C0C4F808C0DFF86CE085
:104F5000C4F80CE01A4D2561C4F814C0194DA561C0
:104F6000194C4460C0F808C0184DC5600461C0F811
:104F700014C0174C84611748486017488860C1F80E
:104F80000CE00B614B618B61144951609360D360FD
:104F900013615361936130BD600100200401002062
:104FA000A80000204C0000200080BB440040B54415
:104FB0000000FA44CDCC8C400AD7A33C00008C43BF
:104FC000000090400000B44333337340000082433C
:104FD0000000A043000040400AD7233C00002041CD
:104FE00008B5144B5B78D3B1134B1B786BB9FEF744
:104FF000CDFA1249FBF77EFE114BD8610E4B012210
:105000001A700C4B5B78A3B90CE0FEF7BFFA0B49A2
:10501000FBF770FE0A4B1863064B5B784BB9064BE7
:105020001B7813B1044B00221A70024B5A68044BD0
:105030009A6408BD340B0020240D00200000C842F3
:105040004C00002038B5FEF7BDF9624C2063FEF736
:10505000C5F9614B1863FEF7CDF9604B1863FFF794
:10506000BFFF206B0021FCF701F8002800F08C80C6
:10507000206B5B49FBF7FAFF002840F08D80564B10
:10508000186B0021FBF7F2FF002800F08D80524BD7
:10509000186B5349FBF7EAFF00287DD10122114626
:1050A0001046FFF7D3F94B48FFF79CFE4A48FFF73D
:1050B00099FE4A48FFF796FE4A4B5B78002B7CD15D
:1050C000484B5968484A91641B78002B7FD0906CFC
:1050D000404B996C404B9A6C404B9B6CFFF754FBD8
:1050E0003C4D6868414C4249FBF704FEFBF7EEFF7C
:1050F000E070A8683E49FBF7FDFDFBF7E7FF207174
:10510000EB68354D68683A49FBF7F4FDFBF7DEFFC5
:105110002070A8683649FBF7EDFDFBF7D7FF6070FC
:10512000E8683349FBF7E6FDFBF7D0FFA0702B4D95
:1051300068682F49FBF7DEFDFBF7C8FFA071A86880
:105140002B49FBF7D7FDFBF7C1FFE071E868284961
:10515000FBF7D0FDFBF7BAFF2072234D68682449A6
:10516000FBF7C8FDFBF7B2FF6072A8682049FBF7A8
:10517000C1FDFBF7ABFFA072E8681D49FBF7BAFD64
:10518000FBF7A4FFE0720EE0124B186B1949FBF716
:105190004FFF00283FF473AFFFF7A3FA002201216D
:1051A0001046FFF753F938BD0B4B186B1149FBF74D
:1051B0003FFF00283FF472AFEEE70B4C2046FFF7AD
:1051C00011FEA06C0C49FBF78DFCA06478E7FFF79B
:1051D00088FA85E76001002004010020A800002073
:1051E0000000A042340B00204C000020580B00208F
:1051F00000007F430000A0C20080BB4408B5044902
:105200000870052301220348FDF799FC08BD00BF83
:10521000280D0020B80B00200268084B9A4200D0ED
:10522000704710B5064C21780648FFF7CFF80122E9
:1052300021460548FDF75CFD10BD00BF0038014068
:105240008C0D00202C030020B80B002008B502486C
:10525000FFF7D8F808BD00BF2C03002008B5FFF702
:10526000F5FF012202490348FDF742FD08BD00BFDA
:105270008C0D0020B80B002070B50546441EC0F10F
:10528000010603E014F8010FFFF7B8FF2846FAF70C
:105290005FFF33199842F5D870BD000010B5024683
:1052A000044C0549204600F099F92046FFF7E4FF39
:1052B00010BD00BF280D00207477000800B583B032
:1052C0001C4B9A6942F001029A619B6903F0010349
:1052D0000193019B0320FBF751FF002211466FF061
:1052E0000B00FBF75DFF002211466FF00A00FBF791
:1052F00057FF002211466FF00900FBF751FF002213
:1053000011466FF00400FBF74BFF002211466FF0CF
:105310000300FBF745FF002211466FF00100FBF789
:105320003FFF002211464FF0FF30FBF739FF03B07B
:105330005DF804FB0010024002680E4B9A4200D058
:10534000704700B587B0C023029312230393032351
:10535000059302A90848FBF789FF084BDA6942F474
:105360000012DA61DB6903F400130193019B07B0BB
:105370005DF804FB00540040000C014000100240A6
:1053800084B003681C4A934213D0B3F1804F1CD001
:105390001A4A934225D01A4A934214D1194BDA691A
:1053A00042F00402DA61DB6903F004030393039B18
:1053B00009E0144B9A6942F400629A619B6903F414
:1053C00000630093009B04B0704703F50433DA696F
:1053D00042F00102DA61DB6903F001030193019BF2
:1053E000F1E7084BDA6942F00202DA61DB6903F0A7
:1053F00002030293029BE6E7002C014000040040F8
:10540000000800400010024000B585B003681C4A47
:1054100093420BD0B3F1804F13D01A4A934219D064
:10542000194A934220D005B05DF804FB4FF40063A5
:10543000009302230193039369461448FBF716FF78
:10544000F1E7022300930193039369460F48FBF7AA
:105450000DFFE8E7032300930223019303936946BA
:105460000B48FBF703FFDEE74FF440730093022382
:105470000193039369460648FBF7F8FED3E700BFA4
:10548000002C0140000400400008004000080140DA
:10549000000C01400268184B9A4200D0704730B5AA
:1054A00087B003F558439A6942F480429A619B6938
:1054B00003F480430193019B4FF400730293022392
:1054C0000393032305930D4D02A92846FBF7CEFE57
:1054D0004FF48063029300240394049402A92846A5
:1054E000FBF7C4FE224621462520FBF759FE252066
:1054F000FBF78CFE07B030BD0038014000080140CA
:105500007047FEE7FEE7FEE7FEE77047704770472B
:1055100008B5FBF721FEFBF7A5FE08BD08B502485C
:10552000FDF77EFC08BD00BFB80B00200F4B1A68CA
:1055300042F001021A6059680D4A0A405A601A681E
:1055400022F0847222F480321A601A6822F48022D7
:105550001A605A6822F4FE025A604FF41F029A60E1
:10556000044B4FF000629A60704700BF0010024089
:105570000000FFF800ED00E008B5FBF7F5FD08BD01
:1055800008B5FBF7F1FD08BD08B5FBF7F3FD08BD55
:10559000002103E00B4B5B58435004310A480B4B8E
:1055A00042189A42F6D30A4A02E0002342F8043B2A
:1055B000084B9A42F9D3FFF7B9FF00F02FF8FFF735
:1055C00085F870477878000800000020200200204D
:1055D00020020020DC0E0020FEE700000EB46FF079
:1055E000004100B59CB01DAB02900690079104915C
:1055F0000848094953F8042B0591006802A9019352
:1056000000F084F90022029B1A701CB05DF804EBD4
:1056100003B07047C00100200802FFFF70B50026EC
:105620000C4D0D4C641BA410A64209D102F04EF89B
:1056300000260A4D0A4C641BA410A64205D170BD79
:1056400055F8043B98470136EEE755F8043B984778
:105650000136F2E77078000870780008707800086A
:10566000747800087047704738B50546002940D067
:1056700051F8043C0C1F002BB8BFE41800F0DEF812
:105680001C4A136833B9636014602846BDE838408B
:1056900000F0DAB8A34208D9206821188B4201BF74
:1056A00019685B6809182160EDE71A465B680BB161
:1056B000A342FAD911685018A0420BD120680144C6
:1056C000501883421160E0D118685B68084410608C
:1056D0005360DAE702D90C232B60D6E72068211843
:1056E0008B4201BF19685B680918216063605460D0
:1056F000CBE738BDD40E002070B50F4E0C46316894
:10570000054611B900F0AAFB30602146284600F09A
:10571000A5FB431C03D14FF0FF34204670BDC41CD1
:1057200024F00304A042F8D0211A284600F096FB8A
:105730000130F2D1EFE700BFD00E00202DE9F84391
:10574000CD1C25F0030508350C2D38BF0C25002D88
:10575000064601DBA94204D90C2333600020BDE8D2
:10576000F883DFF8D48000F069F8D8F800301C46E0
:1057700044BB29463046FFF7BFFF431C044658D1BF
:10578000D8F800402746002F43D1002C4BD0236887
:105790003946304604EB030900F060FB814542D1F5
:1057A000216830466D1A2946FFF7A6FF01303AD02E
:1057B00023682B442360D8F800305A6862BBC8F8CD
:1057C00000700FE02268521B20D40B2A17D96119F0
:1057D000A342256018BF5960636808BFC8F800106D
:1057E00062514B60304600F02FF804F10B00231D8E
:1057F00020F00700C21A1CBF1B1AA350AFE7626853
:10580000A3420CBFC8F800205A60EBE72346646847
:10581000AEE73C467F68B6E71A465B68A342FBD119
:1058200000235360DEE70C233046336000F00CF8B1
:1058300094E70560D6E700BFD40E00200148FFF7CB
:1058400011BF00BFCC0E00200148FFF70CBF00BF06
:10585000CC0E00202DE9F0471F468E688246BE42DE
:105860000C4690460B682DD8B1F90C2012F4906FBD
:1058700026D06569096905EB4505A3EB010905EB30
:10588000D5757B1C4B446D109D4238BF1D4653059A
:1058900027D52946FFF752FF064660B34A462169DD
:1058A00000F0FAFAA38923F4906343F08003A38104
:1058B00026614E4426603E466561A5EB0905A5605C
:1058C000BE4200D93E4632464146206800F0ACFA5E
:1058D0000020A3689B1BA360236833442360BDE8BA
:1058E000F0872A4600F0E6FA06460028E0D1504646
:1058F0002169FFF7B9FE0C23CAF80030A3894FF0E5
:10590000FF3043F04003A381E9E700002DE9F04FA9
:1059100098468B8907461B060D4614469DB010D548
:105920000B6973B94021FFF709FF2860286130B97E
:105930000C233B604FF0FF301DB0BDE8F08F4023DB
:105940006B610023099320238DF8293030234FF019
:105950000109CDF80C80DFF898818DF82A302346B4
:105960009A4613F8012B0AB1252AF9D1BAEB040B98
:105970000BD05B46224629463846FFF76BFF0130C5
:1059800000F0A780099A5A4409929AF80030002B37
:1059900000F09F8000234FF0FF32CDE905230AF18C
:1059A000010A049307938DF853301A935446052245
:1059B00014F8011B4E4800F061FA049AD8B9D006D9
:1059C00044BF20238DF85330110744BF2B238DF89B
:1059D00053309AF800302A2B15D0544600204FF04F
:1059E0000A0C079A214611F8013B303B092B4BD991
:1059F000B0B1079214E0A0EB080309FA03F31343D4
:105A0000A2460493D2E7039B191D1B680391002B48
:105A1000BBBF5B4242F0020207930793B8BF0492F8
:105A200023782E2B0AD163782A2B32D1039B0234A0
:105A30001A1D1B68039243EAE3730593DFF8B4A0D1
:105A400003225046217800F019FA38B14022049B15
:105A5000A0EB0A00824013430134049314F8011BA5
:105A6000062225488DF8281000F008FA002836D0C4
:105A7000224B1BBB039B073323F00703083303931D
:105A8000099B334409936AE70C4601200CFB023260
:105A9000A8E700234FF00A0C19460134059320466D
:105AA00010F8012B303A092A03D9002BC6D00591F2
:105AB000C4E7044601230CFB0121F0E703AB00938C
:105AC0002A4638460E4B04A9AFF30080421C064616
:105AD000D6D1AB895B063FF52DAF09982CE703AB18
